2024WA000000000000000                    N 4      K922 11J960  12R090  21J690  22U071  31D62   41K922  42R31   61C61   62C795  63I499  64N179  65F03   66R628                                                           K922 C61  C795 D62  F03  I499 J690 J960 N179 R090 R31  R628 U071                                    NXN8             UD                              2024000000                               .
2024WA000000000000000                    N14      U071 11J189  21U071  61I10   62E785  63G459                                                                                                                           U071 E785 G459 I10  J189                                                                            NXU8             UD                              2024000000                               .
2024WA000000000000000                    N 4      K746 11I500  21J154  61R688  62N189  63K746  64E149  65I10                                                                                                            K746 E142 I10  I500 J154 R688                                                                       UXN8             UD                              2024000000                               .
2024WA000000000000000                    C 2      R99  11R97                                                                                                                                                            R99                                                                                                 NXU8 999999999999NM                              2024000000                               .
2024WA000000000000000                    N 1      I350 11T828  21Y831 &31I350 &61R13   62E440  63K746  64I509  65T814                                                                                                   I350 E440 I509 K746 R13  T814 T828 Y831                                                             NXU8             UDO                             2024000000                               .
2024WA000000000000000                    N 0      A419 11A419  21A498                                                                                                                                                   A419 A498                                                                                           UXN8             UDO                             2024000000                               .
2024WA000000000000000                    N 0      I509 11I469  21J960  22J961  31I509  61N185                                                                                                                           I509 I469 J960 J961 N185                                                                            UXN8             UD                              2024000000                               .
2024WA000000000000000                    N 0      C259 11C259                                                                                                                                                           C259                                                                                                NXN8             UARNP                           2024000000                               .
2024WA000000000000000                    N 0      C56  11C56   12C786                                                                                                                                                   C56  C786                                                                                           NXU8             UD                              2024000000                               .
2024WA000000000000000                    N 0      C64  11C64                                                                                                                                                            C64                                                                                                 NXN8             UD                              2024000000                               .
2024WA000000000000000                    N 0      I739 11R090  21I64   31I739  61F179                                                                                                                                   I739 F179 I64  R090                                                                                 NXY8             UD                              2024000000                               .
2024WA000000000000000                    N 0      L031 11A419  21L031  61E889  62N179  63E872  64J960  65R090                                                                                                           L031 A419 E872 J960 N179 R090                                                                       NXN8             UD                              2024000000                               .
2024WA000000000000000                    N 0      F019 11F019  12F919  61I694  62I10   63I48   64I119  65N183                                                                                                           F019 F919 I131 I48  I694                                                                            NXN8             UD                              2024000000                               .
2024WA000000000000000                    N 0      G309 11G309  61I10   62I251  63I48   64R568  65J459                                                                                                                   G309 I10  I251 I48  J459 R568                                                                       NXU8             UD                              2024000000                               .
 